:020000040000fa
:080000000002040000000000f2
:020000040000fa
:100400004f992100c0732300000188000000000004
:10041000050007000c000700cc0f020000000000e0
:100420000040da000000fe004440a90080002000e7
:100430000000e0000300320000002000a00188005e
:100440004440a800000006000076210001002000c2
:100450001600370062004000e080480091018800eb
:100460009001ba0062004000e080480091018800dd
:100470009002ba0062004000e08048000002eb00f9
:100480006028e10005003a008301e900070033001d
:10049000038009000059eb00040037006128e100e7
:1004a000010032000082eb00050007009101880086
:1004b0001001ba000200e000e6ff3a00000005006b
:1004c000910188008002780062004000e0804800ce
:1004d0003559ba008301e900080032002559ba00f5
:1004e0008301e900050032000400e000f4ff32005f
:1004f00015d9ba008301e900f1ff3a0000000600b7
:10050000839f68000100e00002003d0060001000d1
:10051000e08018000300e00002003d0060011100cf
:10052000e08119003f0107004f00e00002003b009e
:1005300060001000e080180000000600889fbe00e8
:100540008a9fbe00010578000100e000040035002c
:1005500008003c000000e0002000320005003700e9
:1005600060001000e080180002003b0001f02c0049
:100570001a0037000004be006011b8006b092000ab
:100580000982cf00020039000882cf000441b00088
:10059000694252000e00320008003b008281710067
:1005a000610164008904d1000884d3008b05e80050
:1005b0000442e800f9ff3a0005003700080444004f
:1005c00089844c008b05e9000442e900fbff3a00f6
:1005d000240107000af0a70001f0a0004f05be00ab
:1005e0004f04be0000000600889fbe008a9fbe0028
:1005f0008c1f7800410107004801330003866c001e
:100600006450e100240032006420e1002700320041
:100610006150e100220032006120e100210032003f
:100620008b854200eb07b1000134b800003ab800f6
:100630000804420089844a00013ab8000030b8003a
:100640008880400009014a00040033000000400097
:1006500081804800020149008b05e900c909dd00dd
:10066000830170000100320013002000c814de0076
:100670004814dd004709de001200b200c808de00a1
:1006800008847000f700070001f0a1000cf0a7003b
:1006900001f0a0002a0137006120e1002c013200a6
:1006a0000801be000200be00f7ff37006150e10004
:1006b000fcff3a002601370003f0a200889fbe002d
:1006c0008a9fbe008c1f78000c01070013013300c5
:1006d0006450e1004f0032006420e100520032001b
:1006e00003826c0007003b000905d0000306d00020
:1006f000820f54000c065d00020039000200320037
:1007000089017800030678008582550004003d00c9
:100710000003fd008103fd008502ea008b85420095
:10072000840f720002003b0060001000e08018009f
:100730006011b8000005eb007a28e1000a003900da
:1007400006007800c75ddd00f707b20087807500fe
:100750002d003700828171000a0178006105600078
:100760008180d1000080d3008502e900f9ff3b00c1
:10077000060440008784480002003b006004140027
:10078000e0841c000988a300070032008a81710000
:1007900082817100610164008904d1000884d30062
:1007a0008b05e800170037000978a30013003a0012
:1007b0000b00e000130034008b05e900080444003e
:1007c00089844c000a4474000978a3000d003a00a3
:1007d0000b00e000070034008b05e900080444002a
:1007e00089844c0001003a000b0020000978a30026
:1007f000f7ff32000001eb00020037008281710038
:100800000a017800970007000cf0a70001f0a00093
:10081000cb0037006420e10002003a00838f6c00b7
:10082000cb0033000801be000200be00c400370048
:10083000f4ff2f00c90037000001be00e2000700ee
:100840000470a70003f0a1006509b1001600320092
:100850000d0035006828e10006003500f0ff2f008c
:10086000f1ff27000300e00013003b000100280017
:100870000000050000004000818048008502e9007a
:10088000fcff3a0008003700f88f420002003c00ed
:100890008000eb00000005008100d1000080d30043
:1008a0008502e800fcff3a000300e00002003b0084
:1008b00060001000e080180000000600889fbe0065
:1008c0008a9fbe008c1f78008c00070093003300c5
:1008d00003866c006450e1002e0032006420e100c9
:1008e000330032006150e1002f0032006120e1004e
:1008f0003100320085855500eb07b000090020006b
:1009000008042000050037000804440089844c00d6
:100910000a0031000603430087834b0000015300a7
:1009200081815b00f8ff33000203be000800a000d5
:100930000804440089844c00f6ff3900c639dd0004
:100940008301730001003200130020008904d100ec
:100950000884d3000998a300050032000800a7000e
:100960000300a0008904d1000884d3008b05e800af
:100970008904d1000884d3000001eb000281d20079
:100980003800070001f0a1000cf0a70001f0a00062
:100990006b0037006420e1006d0032000801be00ea
:1009a0000200be00f7ff37006120e100680032005e
:1009b0006000b800f3ff37000000200001f82700b6
:1009c000f0ff37000081eb00940037000001eb00de
:1009d000920037000001eb00f9000700040032002c
:1009e0000200200003f8230001f0a70032ff0700f7
:1009f0000000060014002000580037000001eb0042
:100a0000ef000700040032000200200003f823007a
:100a100001f0a60029ff07000000060004002000e6
:100a20004e0037006022b800060220000000d0000f
:100a30008180d2000482d2008582d2000000a00012
:100a40000202520083825a00030031000202420077
:100a500083824a000000a1000603e900f3ff3a0088
:100a60000000060081002000618055000b003d0061
:100a70000b00200061fe2f000100e1001d0034008a
:100a800082817100610164008904d1000884d3006f
:100a90000000e800faff3a007100200061006400e5
:100aa000030070000200600009003200610444008d
:100ab000e0844c000988a500050032008b05e800a1
:100ac0006808e10002003a008904d1000884d300dc
:100ad000f20f20000258e10005003d00c75ddd0077
:100ae000f907b20089807500080078000000060050
:100af0000bf827008b007800000005000004be0002
:100b0000310007000003be000405be000200be0065
:100b10002d000700844f7500000006000200be0093
:100b20006450e100050036006420e1000200360058
:100b30000968a30001003a000800be000160a0009f
:100b40004f0678004f05be004f04be0000000600af
:100b5000f0ff2f00f1ff2700f9ff3700889fbe004c
:100b60008a9fbe00841f7800e4ff07004f007800d2
:100b700011003300f0ff2f00838f6c0006003b0054
:100b8000040565000a00a7000800370009f0a60068
:100b90001000200008003700820f5400838f5c0093
:100ba000030039001000200001003e00000020007a
:100bb00009f0a7000000ea004f05be004f04be0088
:100bc0000000e00000000600c70ade00f107b200e6
:100bd000f50fb20008003200e1cf420002003200ff
:100be0000170a00024000500810f70000100320098
:100bf0000408050044000500810f700002003a005f
:100c0000140005008502e9000000400081c0480092
:100c1000fcff3b000170a00024000500889fbe007f
:100c20008a9fbe008c9fbe00820578000004be0033
:100c3000e5ff07000800be006420e100070039005e
:100c400002003a00f1ff2700f0ff2f000160a00032
:100c50001202200092cc8800550037006120e1008c
:100c600003003a000b00a70001f8230050003700f2
:100c700001f0a10002002100936424005dff070041
:100c80000800be0004003500b2fd2000930c2400d3
:100c9000720007000004be000005eb000b00a60078
:100ca0004f0dde0001f0a1000004be0032982f00bd
:100cb00023ea23004cfe07000001eb0003f02300b1
:100cc0000b00a70003f823007cfe0700dafe0700f4
:100cd0000000a7000a00a20018fe07000b00e000b9
:100ce000030032000200200003f0230072fe070020
:100cf00001f0a2000006be000200200093042400c0
:100d000039fe07000801be006cfe0700809fbe0090
:100d10000c00be0022a22a00d3a7230032fe070047
:100d20004f01be0065fe07000004be0001f0a100f7
:100d300002002000039823002eff07000800be00d9
:100d4000190035000001be0027fe07000006be00a6
:100d5000b2c52900e362230023fe070022222b00f4
:100d6000f3942b0055fe07000c01be001efe070089
:100d7000e273280083c0230050fe07000c01be0070
:100d800019fe070042aa2a00a3e22b004bfe07002f
:100d90000c01be0014fe07000801be0012fe070091
:100da0000801be0045fe07000a00a70001f0a200ee
:100db0004f06be004f05be004f04be0000000600f7
:100dc000889fbe008a9fbe000003be007eff070012
:100dd0008505780082815200020020006220e10037
:100de00004003a00f307b100040035007718e10071
:100df000040035000600be00140037006000b80093
:100e00000f003700f50f2000faff2f008502d100f8
:100e10000a85d3008301e900fcff3b008184620066
:100e200000046500890f7400f2ff32008582ea0039
:100e30000a85ea00818462000004650009ff07005a
:100e400007f0a70001f0a0000081eb000200e00025
:100e50004f05be004f04be00000006000400200045
:100e600000003700889fbe008a9fbe008c1f78005c
:100e70004f26dd0021ff070028ff33006120e1003d
:100e8000430032006250e10041003e003e00390064
:100e90006420e1003c003200058255000f003b0059
:100ea0000402e80038003a00800f5300818f5b0095
:100eb000350034000800be0003f0a10001f0a600d8
:100ec00003f0a0000cf0a700fcfd07001cff37009a
:100ed0000603430087834b000c4646000005530081
:100ee00081855b00020033000a03be000c00a000f5
:100ef0000402e900f6ff3b00850578000602430086
:100f000087824b0004003a006000b80009f0a70097
:100f100001f0a0000aff37000002520081825a004f
:100f20000704e000040033000603430087834b00fe
:100f30008b05e900faff3700090578000604be00ba
:100f40000203be006011b800c6fe0700e00f5200a9
:100f5000e08f5a000700350002003c000c08a30097
:100f6000040032000601be0003f0a0000cf0a70050
:100f7000d2fd07000a85680001f0a1000af0a70071
:100f800001f0a000eefe37000800be00ecfe3700c6
:100f9000100220000cf0a60090cc8800ecfe370078
:100fa0000c00fa00889fbe008a9fbe008c9fbe0086
:100fb0000004be0002002000037024008afd070028
:100fc000c0b79f00d1b79f006011b8000800be00f5
:100fd00017fe07000000e0003e0035004fb097000c
:100fe000dfb097007bfe070013fe07000006be007f
:100ff00052fd07000005be000200200003f02300a0
:1010000079fd07000004be0072fe07000001be006b
:101010000800be00a8fd07000001be00a7fd0700f4
:1010200005fe0700e0b79f00f1b79f000a01be0070
:101030004fb09700dfb097009ffd07000004be008f
:101040000200200003f02300f9fd07000000e0008b
:10105000110034000200200003f823000a00be0043
:1010600096fd0700f4fd07000006be00f2ff270012
:10107000f0ff2700800f5600e08f5e00570034001d
:10108000020078004f06be004f05be004f04be00b0
:101090000080fa00000006000200200003f0230098
:1010a0000800be0053fe07000000e000efff3a001a
:1010b0006fb097000000e000e6ff3a00f2ff270063
:1010c000f0ff2700800f5600e08f5e00ecff3c0031
:1010d000420037004fb09700dfb0970047fe07008f
:1010e000d5fd07000006be0014fd07000005be0088
:1010f0000001be004fb09700dfb0970047fe070029
:101100000000e000080032000200200003f8230085
:101110000a00be0068fd0700c7fd07000006be000c
:1011200006fd07000005be000200200003f02300ba
:101130000a00be002cfd07000004be0025fe0700cb
:101140000001be000800be005bfd07000001be00fc
:101150005afd0700b8fd070080bf9f0091bf9f00a8
:101160000a01be004fb09700dfb0970052fd0700a4
:101170000004be000200200003f02300acfd0700c5
:101180000000e00009003c000200200003f0230002
:101190000800be0017fe07000000e00009003a004a
:1011a0000fb897000000e0000600320002002000a7
:1011b00003f823000a00be0040fd07009efd070063
:1011c0000006be000200280000002800f1ff2f00ea
:1011d000800f5600818f5e00a9ff35000c0078005b
:1011e0004f06be004f05be004f04be000080fa004f
:1011f00000000600a8ff37008102d0008502e90048
:1012000001187800021878000518410003187800ca
:101210000418780005184200040878000000060051
:10122000800090000101e900c00090000000200053
:10123000028009008018780000000600881f7800ee
:101240008a1f78004400f800080f20002802880058
:101250003400f8003305900008f02f000a40e10048
:1012600004003200280280004800b30028028800f1
:10127000aa0188004600f8004800f8004a00f8007b
:101280004c00f8004e00f8008a0a2c003a02880050
:10129000230490005802880013049000480288003c
:1012a000530590007a028800430590006a02880086
:1012b000811f7800630590000302900063025200d2
:1012c0000000e9000080080007000000320d7800ef
:1012d000000000004618c300048009004618c4003e
:1012e0004218c4001201c4003100cd00ea01980088
:1012f0004f0078004e00f9004c00f9004a00f90058
:101300004800f9004600f9003400f9004400f900f3
:101310004f0578004f047800000006004400f800f4
:10132000040f200024028800811f78000000e900db
:10133000008008000300000032027800b302780049
:101340001301c0003100cd004f0078004400f900c7
:10135000000006004400f800040f2000240288006a
:10136000010278000000e90000800800040000008d
:10137000b20278000500ca00b30278000500c90077
:101380003100cc00040078004400f90000000600a1
:10139000f4874700889fbe008a9fbe008c9fbe00d6
:1013a0008e1f7800d1b79f00020478001100200042
:1013b0008008dd0022002000110009008200d80012
:1013c000000578000000200001f82300f4fe07006b
:1013d000dfb09700800878000000eb0090009800d4
:1013e000648740006150b90054fc07000001be0052
:1013f000b0fd20009104240030fd07000006be006f
:1014000070fd0700e0b79f00f1b79f000800e00003
:10141000410032000c00be006cfd0700b0b79f0019
:10142000c1b79f0090b79f00a1b79f000a80e90055
:10143000320033006fb69700ffb697008000eb00d4
:1014400081b79f000a05e9008abf9f000c00be001b
:10145000d3fe0700000f78001fb09700afb09700d1
:10146000cffe070010079800640747006fb1970090
:10147000ffb197000c00be005bfc07000004be003b
:101480001fb19700afb197003fb09700cfb0970062
:1014900055fc07000001be000800be0086fc0700e6
:1014a0000005be000c01be003fb09700cfb0970012
:1014b0004dfc07000004be006fb19700ffb197001c
:1014c0001fb09700afb0970047fc07000001be00b7
:1014d0000800be0079fc070090b79f00a1b79f00ed
:1014e0000fb097000000e80080b79f000a06be001a
:1014f0008fb89700810f5000d4ff3a005fb097007b
:101500004f0778004f06be004f05be004f04be00d7
:101510004f01b100000006000c00be002bfd0700cb
:1015200001f0a200b0b79f00c1b79f0090b79f0025
:10153000a1b79f00bdff3700809fbe00831f7800ca
:10154000841f7800230020000018dd00d60a020066
:10155000000000004f01be004f00be00801f780059
:10156000e20a020000000000800078004f007800ce
:101570005a0b02000000000000000600809fbe0021
:10158000831f7800841f7800230020000018dd00ee
:10159000d60a0200000000004f01be004f00be004e
:1015a000900b02000000000000000600810178009e
:1015b0000000e90000800900b218780003007800fc
:1015c00000000600889fbe008a9fbe008c9fbe0060
:1015d0004400f800070f2000270288003400f800bc
:1015e00007f02f000338e1000400320027028000da
:1015f0004700b30027028800a3018800811f7800fc
:1016000019002000804cdd00130020000204780047
:10161000800678008904d100424edd000105780083
:101620000302e90004800800170000008a05460054
:101630004218dd000902e9000480080010000000e3
:10164000000000004620c3003b025200df35c1000d
:10165000080440001381c200ab825200264dc50031
:101660003e85c400bb00cd00bb80cd003a00ca005f
:101670002a80ca000700c9000580c900ba00cd0051
:10168000ba80cd000a054600020478008301d0002c
:101690008d06e900dfff3c004f0078003400f900c0
:1016a0004400f9004f06be004f05be004f04be00c7
:1016b000000006004600f8005000f800022020005c
:1016c0003202880002002800130020008019dd008b
:1016d0000281710082028800010078000101780017
:1016e00026002000470020008301e9000380080055
:1016f000070000000110e100040034001102be00e8
:1017000092087800e2307b000489be0087804000a8
:10171000121978005000f9004600f9000000060098
:10172000811f7800801f7800811f7800e20a020084
:1017300000000000cf0078004f0078005a0b020034
:10174000000000004f007800000006000000fa00d2
:10175000cda2a900cde2a900cdc2a900d1a2a800c6
:10176000d1e2a800d1c2a800d302a800d322a800c9
:10177000e402a900e422a900e802a900e822a900e5
:101780000000eb0030cc88000000eb0040cc88006b
:101790000080fa00000006000200fa00d5c2bf0077
:1017a000614060000004e00009003a0030cc800095
:1017b0000000e80030cc880030cc8000ec0f5000f6
:1017c00007003a0010002000000f780004003700e6
:1017d0000000eb0030cc88000000eb00000f780028
:1017e0001e0078000080fa00000006000200fa00e7
:1017f000d5c2bf00624060000004e00009003a006a
:1018000040cc80000000e80040cc880040cc800044
:10181000ec0f500007003a0010002000000f780085
:10182000040037000000eb0040cc88000000eb0013
:10183000000f78001e0078000080fa00000006000b
:101840000400fa00000f7800110798001e007800cd
:1018500070cc88001e0078009e009000010878007f
:101860001e0090000008b000800078001e00780084
:101870001100980081c3a90081a3a9008183a90058
:101880008163a9000138200091407800f0ccb300ba
:1018900000c0600080e3b70001382000914078006c
:1018a000c0cfb30000c060000014a00080e3b70008
:1018b00083e3a900213820009140780000c8b300dc
:1018c00000c06000d040b30082e3b7001e00780083
:1018d0001000780080007800000024000080500094
:1018e000201c88001e007800100090008000780006
:1018f0000000240000805000301c880000302000d0
:10190000401c8800f0072000501c88004074200014
:10191000001988000000eb00101988000001200069
:10192000201988000000eb00401988002c03a90052
:101930000000eb00801988000000eb0050088800d0
:1019400070382100700888000080fa00000006004e
:101950000200fa00000f78009e0078000000eb0003
:10196000a00098009e00780010002000b0009800b1
:101970008480a9009480a80081e3a80021e3a80046
:1019800013e1a8000080fa00000006000200fa003f
:10199000000f78009480a90081e3a90021e3a90049
:1019a00013e1a9000080fa00000006000c00fa0014
:1019b0002007980031079800420798002e009000f9
:1019c000200090000000e000040032002e00900093
:1019d0001000780050079800030037002e00900098
:1019e00010009000500798005e00900010079800cb
:1019f000ce00900000082000808f500002003400cc
:101a000000082000400798000000eb00000f78005d
:101a10000d0037001e0078000000400080007800b4
:101a20003e009000008140001e0078000000400051
:101a3000800078001e0090000080400010007800b8
:101a4000000978001e0fe8004e0090009e0f100065
:101a5000f0ff35000400fc00ae00900010002000f4
:101a6000b00098000000fc000080fa0000000600b2
:101a70000200fa00000f78001e007800300090008d
:101a80000080fa0000000600809fbe000000fa00ff
:101a90008480a90071cc800070cc80002000900070
:101aa0000000a200a000980071cc80000000eb00b4
:101ab000b00098000080fa004f00be000040060011
:101ac0000400fa00000f7800110798001e0078004b
:101ad00080cc88001e0078009e00900001087800ed
:101ae0001e00900001102000808040001e00780041
:101af0001100980010012200601c88007000200076
:101b0000701c88001e0078001000780080007800ab
:101b10000000240000805000801c88000018200075
:101b2000a01c880070002000b01c88000000eb00a2
:101b3000800888000000eb00300888000000eb00ff
:101b4000600888000080fa00000006000200fa0029
:101b5000000f78009e0078000000eb00a0009800c5
:101b60009e0078000000eb00e00098009e007800e6
:101b700000082000c00098009e00780000082000a7
:101b8000d00098009e0078000000eb00b0009800a4
:101b900085c0a90095c0a8008de3a80000272000fb
:101ba0006008880080132000000c8800801320004b
:101bb000100c880060002000200c880011e1a800b3
:101bc0000080fa00000006000200fa00000f780012
:101bd00011e1a90095c0a9008de3a9000080fa00d9
:101be000000006001000fa00400798005107980016
:101bf000620798004e009000200090000000e00076
:101c0000040032004e009000100078007007980029
:101c1000030037004e0090001000900070079800fd
:101c20007e00900030079800ee0090000008200031
:101c3000808f5000020034000008200060079800e8
:101c40000000eb00200798002c0037002e009000c9
:101c500000004000800078005e009000008040009e
:101c600090007800000028000080400010079800d5
:101c70001e0090006101b800002720000013b8008a
:101c80006010b9000702780000024200002720001f
:101c90000098b9000002420084037800f2ff2f0090
:101ca000030020000600be0015fa0700000f7800b0
:101cb000002720009e0f100002003600f0262000b2
:101cc000000f78001e00e00002003a001000200023
:101cd000000f78002e009000000040008000780087
:101ce0003e009000808040001e0078008008780050
:101cf0002e0090000000e80020079800ae00900041
:101d00006e009000808f5000d0ff35004e00900094
:101d1000ee009000510098000400fc00ce009000fe
:101d200010002000b00098000000fc000080fa00c5
:101d3000000006000200fa00000f78001e00780084
:101d4000300090000080fa0000000600809fbe0076
:101d50000000fa0085c0a90081cc800061009000dd
:101d60000000e800e000980080cc8000e0009000d7
:101d700080cc800040009000808f500021003a000d
:101d800081cc80000000eb00e000980081cc800056
:101d900080cc8000200090000000a200a0009800ed
:101da00081cc80000000eb00b000980080cc800067
:101db00020009000e10f500007003a0080cc800026
:101dc0001000900080007800000024000080500087
:101dd000801c88000600370080cc8000100078004e
:101de000800078000000240000805000801c8800e3
:101df00080cc800081cc8000d10090004100980010
:101e000003003700801c80000080e800801c8800f0
:101e10008de3a8000080fa004f00be0000400600dd
:101e2000be00fa00881f78000000eb00000f780069
:101e30000d0037001e0478001e007800c200dd008f
:101e4000607d2100008040001000be0054fc0700af
:101e500000017800016021000800440001004000fa
:101e6000020878001e0fe800e00220009e0f10001c
:101e7000f0ff34004474230003f02f0002602100bf
:101e8000f1022000e0942100dbfc0700e094210037
:101e9000e3fc07000000eb00000f78000d003700a6
:101ea0001e0478001e007800c200dd002089210099
:101eb000008040001000be0039fc070000017800df
:101ec000e16521000800440001004000020878009c
:101ed0001e0fe800e00220009e0f1000f0ff34000b
:101ee0000e80e80080017800f2022000000020004f
:101ef000814c2400bb0107000e80e800000278003e
:101f0000e3652100a2712100c16b2100f0022000d5
:101f1000bc020700247a230003f02f00c26b2100cb
:101f2000f1022000c0952100b3fc0700c0952100fc
:101f3000bbfc07004f0478000080fa000000060098
:101f40000600fa00000f7800110798002207980099
:101f5000e39421002e0190009e0090001e00780066
:101f6000b6fc07000080fa00000006000600fa0038
:101f7000000f78001107980022079800c3952100f0
:101f80002e0190009e0090001e007800abfc070020
:101f90000080fa00000006001600fa00889fbe00cc
:101fa0008a1f78009000070050cc80000160240058
:101fb00023fe070060cc800001402400c0fe070023
:101fc00050cc800062fe070060cc8000dffe07007e
:101fd0000000eb00100798000000eb00000f7800f5
:101fe0006000b800000f9800110f98006000b80062
:101ff00060079800710798006000b80040079800db
:10200000510798006000b800200798003107980039
:1020100050cc800096fe07000000e000fcff3a0074
:1020200050cc800002082000012021005ffe070044
:102030000220210001c0230000082000ac0207009c
:1020400010002000200f98001e0037002e0d900079
:102050002e08900001c023004200dd00608078005f
:10206000cf80de0035f907000001be005ef90700f1
:102070000004be002e08900001c023004200dd00d5
:102080000080e80060807800cf80de002bf9070038
:102090000001be0054f907000001be000800be00a8
:1020a00086f907000001be00012024004250dd0037
:1020b000010040000288be002e0890000000e800e9
:1020c000200f9800ae089000f0032000808f500091
:1020d000deff34000000eb00200f98001a003700ec
:1020e0002e089000012024004200dd000100400085
:1020f0001004be001e009000cf80de000ff9070024
:102100000001be000800be00c9f907000000e000a1
:1021100001003c00090037002e0890000120240037
:102120004200dd00010040001000be00c2f90700bf
:10213000100798002e089000000f78002e089000dd
:102140000000e800200f9800ae089000f003200087
:10215000808f5000e2ff3400400120009e0f1000ed
:1021600004003c00d1c2a900d1e2a800d1a2a8007d
:1021700014003700500120009e0f100007003400ab
:10218000900220009e0f100004003c00d1c2a80065
:10219000d1e2a800d1a2a9000a003700a0022000c5
:1021a0009e0f100004003400d1c2a800d1e2a900a3
:1021b000d1a2a80003003700d1c2a800d1e2a80034
:1021c000d1a2a80060cc8000dafe07000000e00089
:1021d000fcff3a0060cc80000208200001302100a2
:1021e00080fe07007aff37000000fa00900220000e
:1021f000303a880044c7bf00f043b20044e7b7005c
:10220000417420009140780000ceb30000c060000f
:1022100044e7b7000000eb00403a880012002000bd
:1022200081072000a0092000337420008149780034
:102230008049780082497800120020006104200063
:1022400070052000237420008149780080497800bf
:102250008249780043c7bf000047b200f04f5000ea
:10226000fcff3a0042c7bf000042b2000004e00099
:10227000fcff320035fd07000080fa000000060078
:102280000400fa00000f78001e0078001007980084
:102290001e009000e20f5000110032001e0090005e
:1022a000e30f50001b0032001e009000e10f5000b1
:1022b0000100320023003700e0ba840000cc88001f
:1022c00000cc800061406000c700dd00d1c2bf00cb
:1022d0000074a10001407000d1e2b700190037007e
:1022e000e0ba840010cc880010cc8000614060000f
:1022f000614060004501dd00112d20009140780013
:10230000f0cdb30000c0600002407000d1e2b70021
:102310000c003700e0ba840020cc880020cc80007c
:1023200061406000614060004601dd00112d200029
:1023300091407800f0cbb30000c060000240700014
:10234000d1e2b7000080fa00000006000400fa00a5
:10235000000f78001e007800100798001e00900003
:10236000e20f5000110032001e009000e30f5000f9
:102370001b0032001e009000e10f500001003200ef
:1023800023003700f0ba840000cc880000cc800025
:1023900061406000c700dd00d1c2bf000074a10031
:1023a00001407000d1e2b70019003700f0ba840094
:1023b00010cc880010cc800061406000614060005b
:1023c0004501dd00112d200091407800f0cdb300d3
:1023d00000c0600002407000d1e2b7000c0037007e
:1023e000f0ba840020cc880020cc800061406000de
:1023f000614060004601dd00112d20009140780011
:10240000f0cbb30000c0600002407000d1e2b70022
:102410000080fa00000006000400fa00000f7800b7
:102420001e007800100798001e009000e20f500078
:10243000180032001e009000e30f50002900320007
:102440001e009000e10f50000100320038003700fc
:1024500001cc8000f0ba8400808f500003003a0065
:10246000e0ba840000cc880002003700f0ba840093
:1024700000cc880000cc800061406000c700dd0017
:10248000d1c2bf000074a10001407000d1e2b700ca
:102490002700370011cc8000f0ba8400808f5000f4
:1024a00003003a00e0ba840010cc88000200370034
:1024b000f0ba840010cc880010cc8000614060002d
:1024c000614060004501dd00112d20009140780041
:1024d000f0cdb30000c0600002407000d1e2b70050
:1024e0001300370021cc8000f0ba8400808f5000a8
:1024f00003003a00e0ba840020cc880002003700d4
:10250000f0ba840020cc880020cc800061406000bc
:10251000614060004601dd00112d200091407800ef
:10252000f0cbb30000c0600002407000d1e2b70001
:102530000080fa00000006000400fa00000f780096
:102540001e007800100798001e009000e20f500057
:102550000e0032001e009000e30f50001200320007
:102560001e009000e10f50000100320015003700fe
:102570001000200042ff07002000200073ff07002a
:102580003000200071ff0700140037001000200009
:102590006eff07002000200039ff070030002000f8
:1025a0006aff07000d0037001000200067ff0700da
:1025b0002000200065ff07003000200030ff0700ea
:1025c000060037001000200060ff070020002000f8
:1025d0005eff0700300020005cff07000080fa006b
:1025e000000006002200fa00881f7800500f9800b3
:1025f000610f9800720f98000317980000002000e8
:10260000a15f24002007980031079800b0fd20004a
:1026100091042400008fbe002e019000be019000a6
:102620000000200001f82300a4f8070040079800ec
:10263000510798001e00be000001be001ff80700f1
:102640005e099000ee099000e7f70700200f980060
:10265000310f98000000eb00400f98002d0037006c
:102660004e089000cf80de00b4f707004e019000c6
:10267000de019000dcf70700600798007107980002
:102680006e019000fe0190002e089000be089000a0
:10269000d5f70700cbf80700000f9800110f98003e
:1026a0004e0890004200dd00800078000e1090007f
:1026b000008440000e0890009e08900038fa070041
:1026c000000c78006e019000fe0190002e08900032
:1026d000be089000c4f70700bcf80700000f980080
:1026e000110f98004e0890004200dd008000780035
:1026f0000e109000008440000e0890009e0890008c
:1027000027fa0700100498004e0890000000e80027
:10271000400f9800ce0890007e089000808f5000f7
:10272000cfff35004f0478000080fa00000006005b
:102730002200fa00881f7800500f9800610f98005f
:10274000720f98000317980000002000a15f24007a
:102750004007980051079800b0fd20009104240024
:10276000008fbe004e019000de01900000002000ae
:1027700001f8230051f807006007980071079800de
:102780001e00be000001be00ccf707005e099000ed
:10279000ee09900094f70700200f9800310f980081
:1027a0000000eb00400f98001c0037004e0890001e
:1027b000cf80de0061f707006e019000fe019000ff
:1027c00089f70700000f9800110f98000e0990007c
:1027d0009e0990002e089000be08900082f7070026
:1027e0007af8070020079800310798004e089000fb
:1027f00000004000800078000e109000008440002f
:102800002e009000be009000e5f90700000c780053
:102810004e0890000000e800400f9800ce0890009d
:102820007e089000808f5000e0ff35004f04780054
:102830000080fa00000006000a00fa001007980065
:102840002107980032079800430798000000eb002a
:10285000000f78002d0037009e0178001e007800e0
:102860004200dd00800078003e00900000804000c3
:102870001001780001802000038041000100400029
:10288000020878009e0178001e0078004200dd00fa
:10289000800078003e009000008040001001900011
:1028a00001902000038041000100400002087800f0
:1028b0009e0178001e0078004200dd008000780054
:1028c0004e009000008040001001780001a0200020
:1028d0000380410001004000020878009e0178005a
:1028e0001e0078004200dd00800078004e0090005d
:1028f000008040001001900001b0200003804100e2
:1029000001004000020878001e0fe8001e00900041
:102910009e0f1000d0ff350003a020000280200091
:1029200001c020001e0090007cfa070003a02000d8
:102930000290200001d020001e00900077fa0700ce
:1029400003b020000280200001e020001e00900063
:1029500072fa070003b020000290200001f020006e
:102960001e0090006dfa070003f0200002c0200056
:10297000018020001e00900076fa070003d020009e
:1029800002e02000019020001e00900071fa070074
:102990000000eb00000f7800150037001e007800e3
:1029a0004200dd00800078002e0090000081400091
:1029b0001e00780001802000000040006080780048
:1029c000000978001e0078004200dd0080007800d9
:1029d0002e009000008140001e0078000190200031
:1029e0000000400060807800100198001e0fe80091
:1029f0001e0090009e0f1000e8ff35000080fa00d6
:102a0000000006000c00fa0010079800210798004b
:102a10003207980043079800540798000000eb0025
:102a2000000f78000000eb00000f78001300370063
:102a30009e0178001e0078000000400080007800b1
:102a40004e0090000080400010017800010021003d
:102a50004218dd0001004000020878001e007800e6
:102a6000010021004200dd00010040008080e800fc
:102a70000000eb00800878001e0fe8001e009000a8
:102a80009e0f1000eaff3500de01900002002100d9
:102a9000be0090001e00900067ff07000000eb00e2
:102aa000000f78000d0037001e0078000000400085
:102ab000800078002e009000008140001e00780009
:102ac0004200dd00800078003e0090000080400061
:102ad00010007800000978001e0fe8001e0090002a
:102ae0009e0f1000f0ff35000080fa000000060085
:102af0000800fa0010079800210798003207980094
:102b00000000eb00000f7800130037009e017800f2
:102b10001e00780000004000800078003e00900019
:102b20000080400010017800018023004218dd0081
:102b300001004000020878001e0078000180230098
:102b40004200dd00010040008080e8000000eb0052
:102b5000800878001e0fe8001e0090009e0f1000f5
:102b6000eaff35000001eb00014021007000200069
:102b700007fa070004f02f00034021000280230021
:102b8000ae009000700020006bfa07000080fa0091
:102b9000000006000800fa001007980021079800be
:102ba0003207980012002000014021007000200030
:102bb000f7f9070004f02f00034021003e019000c8
:102bc00001802300700020006cfa07000000eb0079
:102bd000000f78000b0037001e0078000000400056
:102be000800078002e009000008140001e007800d8
:102bf000018023004200dd00608078000009780039
:102c00001e0fe8001e0090009e0f1000f2ff35001e
:102c10000080fa00000006000a00fa002007980071
:102c200031079800420798002e00900022002000f3
:102c3000110009000200d800000f78000000eb002e
:102c4000100798001b0037001e0090004200dd00b6
:102c5000800078003e009000008140001e0090003f
:102c60004200dd00800078004e00900000804000af
:102c700010007800000978001e0090004200dd007e
:102c8000800078003e009000008140001e0090000f
:102c90004200dd00800078004e009000008040007f
:102ca00010009000100198001e0090000000e80045
:102cb000100798001e0090009e0f5000e2ff3500a4
:102cc0001e00780010079800110037001e009000c9
:102cd0004200dd00800078003e00900080804000cf
:102ce0000000eb00800878001e0090004200dd002c
:102cf000800078003e009000808040000000eb00e3
:102d0000900098001e0090000000e8001007980056
:102d10009e0090002e009000808f5000ebff350049
:102d20000080fa00000006000c00fa00200798005e
:102d30003107980042079800530798002e00900032
:102d400022002000110009000200d800000f7800c6
:102d50000000eb0010079800110037001e009000e3
:102d60004200dd00800078004e009000808040002e
:102d70000000eb00800878001e0090004200dd009b
:102d8000800078004e009000808040000000eb0042
:102d9000900098001e0090000000e80010079800c6
:102da0009e0090003e009000808f5000ebff3500a9
:102db0000000eb00100798001f0037009e009000f5
:102dc0003e009000008040004200dd00800078005e
:102dd0004e009000008140001e0090004200dd0087
:102de000800078005e0090000080400010007800b5
:102df000000978009e0090003e0090000080400096
:102e00004200dd00800078004e009000008140000c
:102e10001e0090004200dd00800078005e009000ff
:102e20000080400010009000100198001e009000eb
:102e30000000e80010079800ae0090003e009000ef
:102e4000808050001e009000808f5000dbff3c000f
:102e50001e00780010079800110037001e00900037
:102e60004200dd00800078004e009000808040002d
:102e70000000eb00800878001e0090004200dd009a
:102e8000800078004e009000808040000000eb0041
:102e9000900098001e0090000000e80010079800c5
:102ea0009e0090002e009000808f5000ebff3500b8
:082eb0000080fa00000006009a
:020000040000fa
:0200000401f009
:04000800ffff0000f6
:020000040000fa
:0200000401f009
:04000c00f8ff0000f9
:020000040000fa
:0200000401f009
:040010007bff000072
:020000040000fa
:0200000401f009
:040014007fff00006a
:020000040000fa
:10000800ce180000ce180000ce180000ce18000050
:10001800ce180000ce180000ce180000ce18000040
:10002800ce180000ce180000ce180000ce18000030
:10003800440d0000ce180000ce180000ce180000b5
:10004800ce180000ce180000ce180000ce18000010
:10005800ce180000ce180000a60e0000ce18000032
:10006800ce180000ce180000ce180000ce180000f0
:10007800ce180000ce180000ce180000ce180000e0
:10008800ce180000ce180000ce180000ce180000d0
:10009800ce180000ce180000ce180000ce180000c0
:1000a800ce180000ce180000ce180000ce180000b0
:1000b800ce180000ce180000ce180000ce180000a0
:1000c800ce180000ce180000ce180000ce18000090
:1000d800ce180000ce180000ce180000ce18000080
:1000e800ce180000ce180000ce180000ce18000070
:1000f800ce180000ce180000ce180000ce18000060
:10010800ce180000ce180000ce180000ce1800004f
:10011800ce180000ce180000ce180000ce1800003f
:10012800ce180000ce180000ce180000ce1800002f
:10013800ce180000ce180000ce180000ce1800001f
:10014800ce180000ce180000ce180000ce1800000f
:10015800ce180000ce180000ce180000ce180000ff
:10016800ce180000ce180000ce180000ce180000ef
:10017800ce180000ce180000ce180000ce180000df
:10018800ce180000ce180000ce180000ce180000cf
:10019800ce180000ce180000ce180000ce180000bf
:1001a800ce180000ce180000ce180000ce180000af
:1001b800ce180000ce180000ce180000ce1800009f
:1001c800ce180000ce180000ce180000ce1800008f
:1001d800ce180000ce180000ce180000ce1800007f
:1001e800ce180000ce180000ce180000ce1800006f
:0801f800ce180000ce18000033
:020000040000fa
:10020800ce180000ce180000ce180000ce1800004e
:10021800ce180000ce180000ce180000ce1800003e
:10022800ce180000ce180000ce180000ce1800002e
:10023800440d0000ce180000ce180000ce180000b3
:10024800ce180000ce180000ce180000ce1800000e
:10025800ce180000ce180000a60e0000ce18000030
:10026800ce180000ce180000ce180000ce180000ee
:10027800ce180000ce180000ce180000ce180000de
:10028800ce180000ce180000ce180000ce180000ce
:10029800ce180000ce180000ce180000ce180000be
:1002a800ce180000ce180000ce180000ce180000ae
:1002b800ce180000ce180000ce180000ce1800009e
:1002c800ce180000ce180000ce180000ce1800008e
:1002d800ce180000ce180000ce180000ce1800007e
:1002e800ce180000ce180000ce180000ce1800006e
:1002f800ce180000ce180000ce180000ce1800005e
:10030800ce180000ce180000ce180000ce1800004d
:10031800ce180000ce180000ce180000ce1800003d
:10032800ce180000ce180000ce180000ce1800002d
:10033800ce180000ce180000ce180000ce1800001d
:10034800ce180000ce180000ce180000ce1800000d
:10035800ce180000ce180000ce180000ce180000fd
:10036800ce180000ce180000ce180000ce180000ed
:10037800ce180000ce180000ce180000ce180000dd
:10038800ce180000ce180000ce180000ce180000cd
:10039800ce180000ce180000ce180000ce180000bd
:1003a800ce180000ce180000ce180000ce180000ad
:1003b800ce180000ce180000ce180000ce1800009d
:1003c800ce180000ce180000ce180000ce1800008d
:1003d800ce180000ce180000ce180000ce1800007d
:1003e800ce180000ce180000ce180000ce1800006d
:0803f800ce180000ce18000031
:020000040000fa
:082eb800000000000100000011
:020000040000fa
:102ec0008619000004000000000000008e190000b8
:102ed0000200000000000000901900000200000045
:102ee00000000000d617000078010000020000007a
:102ef00045d8f000bc05a30092bca6009bc43a00d4
:102f0000a913d000bc5249009dba7500029abc00ba
:102f1000e71da700bcb37b0072bbde009307bd00ba
:102f20009fab2d00bc94870085bcc100a824bd00c8
:102f3000d04458003ba301003cbd0c0093a9bc0049
:102f40003480b700bb4d15008cbd50008d973c0000
:102f50001a515a00bd61c30053bdd800f0743d0042
:102f6000dbf93e00bed95f00363e0400563e3f000e
:102f7000d95f36003edbf9003ebed800f0743d005c
:102f800061c35300bd1a51005abd50008d973c00db
:102f90004d158c00bd348000b7bb0c0093a9bc005c
:102fa000a3013c00bdd04400583bc100a824bd0093
:102fb00094878500bc9fab002dbcde009307bd004d
:102fc000b37b7200bbe71d00a7bc7500029abc0072
:102fd00052499d00baa91300d0bca6009bc43a0078
:102fe00005a39200bc45d800f0bc2e0090a03c0088
:102ff00017b7d1003a7cf20030bc72008a8ebc0058
:10300000075f1800bc9fab00ad3b2b0018153c00c0
:1030100024977f00bb99bb0096bc1e00a768bc002c
:103020006c09f9003b33c400b13c8f00c2f53b0092
:10303000c6dcb500bcb53700f8bcfa00ed6b3a0051
:10304000e63f24003d728a000e3d6000e5d0bc00e2
:1030500009f9a000bd52270020bd8b006ce73d00a0
:10306000190496003e2d2100bf3e190004963e0033
:103070008b6ce7003d52270020bd0900f9a0bd0080
:1030800060e5d000bc728a000e3de6003f243d00a2
:10309000faed6b003ab53700f8bcc600dcb5bc00f1
:1030a0008fc2f5003b33c400b13c6c0009f93b0012
:1030b0001ea76800bc99bb0096bc2400977fbb008c
:1030c0002b1815003c9fab00ad3b07005f18bc0000
:1030d000728a8e00bc7cf20030bc1700b7d13a0077
:1030e0002e90a0003c0000004e1900001c000000c3
:1030f0000000000000160000d601000000000000e3
:1031000044370000bc000000000000008a190000e5
:1031100004000000020000006a197200190000009b
:103120000046000000020000000000000044000013
:103130000002000000000000003a0000000a000049
:10314000000000000012000000020000000000006b
:103150006a1900001600000000000000801900003d
:10316000060000000000000000080000000a000047
:103170000000000000140000000200000000000039
:10318000003800000002000000000000921900005a
:0c31900002000000000000000000000031
:020000040000fa
:04319c000000fe0031
:00000001FF
