:020000040000fa
:080000000002040000000000f2
:020000040000fa
:100400008fd2200080bf2300000188000000000080
:10041000050007000c000700440e02000000000069
:100420000040da000000fe004440a9000000200067
:100430000000e0000300320000002000a00188005e
:100440004440a80000000600804021000100200078
:100450001600370062004000e080480091018800eb
:100460009001ba0062004000e080480091018800dd
:100470009002ba0062004000e08048000002eb00f9
:100480006028e10005003a008301e900070033001d
:10049000038009000059eb00040037006128e100e7
:1004a000010032000082eb00050007009101880086
:1004b0001001ba000200e000e6ff3a00000005006b
:1004c000910188008002780062004000e0804800ce
:1004d0003559ba008301e900080032002559ba00f5
:1004e0008301e900050032000400e000f4ff32005f
:1004f00015d9ba008301e900f1ff3a0000000600b7
:10050000839f68000100e00002003d0060001000d1
:10051000e08018000300e00002003d0060011100cf
:10052000e08119003f0107004f00e00002003b009e
:1005300060001000e080180000000600889fbe00e8
:100540008a9fbe00010578000100e000040035002c
:1005500008003c000000e0002000320005003700e9
:1005600060001000e080180002003b0001f02c0049
:100570001a0037000004be006011b8006b092000ab
:100580000982cf00020039000882cf000441b00088
:10059000694252000e00320008003b008281710067
:1005a000610164008904d1000884d3008b05e80050
:1005b0000442e800f9ff3a0005003700080444004f
:1005c00089844c008b05e9000442e900fbff3a00f6
:1005d000240107000af0a70001f0a0004f05be00ab
:1005e0004f04be0000000600889fbe008a9fbe0028
:1005f0008c1f7800410107004801330003866c001e
:100600006450e1002e0032006420e100330032002b
:100610006150e1002f0032006120e1003100320022
:1006200085855500eb07b000090020000804200074
:10063000050037000804440089844c000a0031009a
:100640000603430087834b000001530081815b0058
:10065000f8ff33000203be000800a00008044400b5
:1006600089844c00f6ff3900c639dd008301730030
:1006700001003200130020008904d1000884d30057
:100680000998a300050032000800a7000300a0009d
:100690008904d1000884d3008b05e8008904d100c7
:1006a0000884d3000001eb000281d200ed000700b6
:1006b00001f0a1000cf0a70001f0a000200137001c
:1006c0006420e100220132000801be000200be00e9
:1006d000f7ff37006120e1001d0132006000b80023
:1006e000f3ff37000000200001f82700f0ff37007b
:1006f000889fbe008a9fbe008c1f7800ff00070005
:100700000601330003866c006450e10024003200cf
:100710006420e100270032006150e1002200320035
:100720006120e100210032008b854200eb07b1001f
:100730000134b800003ab8000804420089844a0035
:10074000013ab8000030b8008880400009014a0032
:10075000040033000000400081804800020149008d
:100760008b05e900c909dd0083017000010032003a
:1007700013002000c814de004814dd004709de0025
:100780001200b200c808de0008847000b50007003f
:1007900001f0a1000cf0a70001f0a000e800370074
:1007a0006120e100ea0032000801be000200be0044
:1007b000f7ff37006150e100fcff3a00e40037002a
:1007c000f4ff2f00e50037000001be00fe00070027
:1007d0000470a70003f0a1006509b1001600320003
:1007e0000d0035006828e10006003500f0ff2f00fd
:1007f000f1ff27000300e00013003b000100280088
:100800000000050000004000818048008502e900ea
:10081000fcff3a0008003700f88f420002003c005d
:100820008000eb00000005008100d1000080d300b3
:100830008502e800fcff3a000300e00002003b00f4
:1008400060001000e08018000000060003f0a20025
:10085000889fbe008a9fbe008c1f7800a7000700fb
:10086000ae0033006450e1004f0032006420e1002c
:100870005200320003826c0007003b000905d000e3
:100880000306d000820f54000c065d000200390000
:100890000200320089017800030678008582550045
:1008a00004003d000003fd008103fd008502ea0015
:1008b0008b854200840f720002003b006000100034
:1008c000e08018006011b8000005eb007a28e10014
:1008d0000a00390006007800c75ddd00f707b200a6
:1008e000878075002d003700828171000a01780031
:1008f000610560008180d1000080d3008502e9009d
:10090000f9ff3b00060440008784480002003b00da
:1009100060041400e0841c000988a3000700320072
:100920008a81710082817100610164008904d100b3
:100930000884d3008b05e800170037000978a3006e
:1009400013003a000b00e000130034008b05e900af
:100950000804440089844c000a4474000978a30008
:100960000d003a000b00e000070034008b05e900a1
:100970000804440089844c0001003a000b00200068
:100980000978a300f7ff32000001eb0002003700f6
:10099000828171000a017800320007000cf0a70084
:1009a00001f0a000660037006420e10002003a0078
:1009b000838f6c00660033000801be000200be0099
:1009c0005f0037000081eb00940037000001eb006e
:1009d000920037000001eb00f9000700040032002c
:1009e0000200200003f8230001f0a70097ff070092
:1009f0000000060014002000580037000001eb0042
:100a0000ef000700040032000200200003f823007a
:100a100001f0a6008eff0700000006000400200081
:100a20004e0037006022b800060220000000d0000f
:100a30008180d2000482d2008582d2000000a00012
:100a40000202520083825a00030031000202420077
:100a500083824a000000a1000603e900f3ff3a0088
:100a60000000060081002000618055000b003d0061
:100a70000b00200061fe2f000100e1001d0034008a
:100a800082817100610164008904d1000884d3006f
:100a90000000e800faff3a007100200061006400e5
:100aa000030070000200600009003200610444008d
:100ab000e0844c000988a500050032008b05e800a1
:100ac0006808e10002003a008904d1000884d300dc
:100ad000f20f20000258e10005003d00c75ddd0077
:100ae000f907b20089807500080078000000060050
:100af0000bf827008b007800000005000004be0002
:100b0000310007000003be000405be000200be0065
:100b10002d000700844f7500000006000200be0093
:100b20006450e100050036006420e1000200360058
:100b30000968a30001003a000800be000160a0009f
:100b40004f0678004f05be004f04be0000000600af
:100b5000f0ff2f00f1ff2700f9ff3700889fbe004c
:100b60008a9fbe00841f7800e4ff07004f007800d2
:100b700011003300f0ff2f00838f6c0006003b0054
:100b8000040565000a00a7000800370009f0a60068
:100b90001000200008003700820f5400838f5c0093
:100ba000030039001000200001003e00000020007a
:100bb00009f0a7000000ea004f05be004f04be0088
:100bc0000000e00000000600c70ade00f107b200e6
:100bd000f50fb20008003200e1cf420002003200ff
:100be0000170a00024000500810f70000100320098
:100bf0000408050044000500810f700002003a005f
:100c0000140005008502e9000000400081c0480092
:100c1000fcff3b000170a00024000500889fbe007f
:100c20008a9fbe008c9fbe00820578000004be0033
:100c3000e5ff07000800be006420e100070039005e
:100c400002003a00f1ff2700f0ff2f000160a00032
:100c50001202200032698800550037006120e1004f
:100c600003003a000b00a70001f8230050003700f2
:100c700001f0a10002002100936424005dff070041
:100c80000800be0004003500b2fd2000930c2400d3
:100c9000720007000004be000005eb000b00a60078
:100ca0004f0dde0001f0a1000004be0032982f00bd
:100cb00023ea23008efe07000001eb0003f023006f
:100cc0000b00a70003f82300e1fe0700befe0700ab
:100cd0000000a7000a00a20018fe07000b00e000b9
:100ce000030032000200200003f02300d7fe0700bb
:100cf00001f0a2000006be000200200093042400c0
:100d00007bfe07000801be00d1fe0700809fbe00e9
:100d10000c00be0022a22a00d3a7230074fe070005
:100d20004f01be00cafe07000004be0001f0a10092
:100d300002002000039823002eff07000800be00d9
:100d4000190035000001be0069fe07000006be0064
:100d5000b2c52900e362230065fe070022222b00b2
:100d6000f3942b00bafe07000c01be0060fe0700e2
:100d7000e273280083c02300b5fe07000c01be000b
:100d80005bfe070042aa2a00a3e22b00b0fe070088
:100d90000c01be0056fe07000801be0054fe07000d
:100da0000801be00aafe07000a00a70001f0a20089
:100db0004f06be004f05be004f04be0000000600f7
:100dc000889fbe008a9fbe000003be007eff070012
:100dd0008505780082815200020020006220e10037
:100de00004003a00f307b100040035007718e10071
:100df000040035000600be00140037006000b80093
:100e00000f003700f50f2000faff2f008502d100f8
:100e10000a85d3008301e900fcff3b008184620066
:100e200000046500890f7400f2ff32008582ea0039
:100e30000a85ea00818462000004650009ff07005a
:100e400007f0a70001f0a0000081eb000200e00025
:100e50004f05be004f04be00000006000400200045
:100e600000003700889fbe008a9fbe008c1f78005c
:100e70004f26dd0021ff070028ff33006120e1003d
:100e8000430032006250e10041003e003e00390064
:100e90006420e1003c003200058255000f003b0059
:100ea0000402e80038003a00800f5300818f5b0095
:100eb000350034000800be0003f0a10001f0a600d8
:100ec00003f0a0000cf0a70061fe07001cff370034
:100ed0000603430087834b000c4646000005530081
:100ee00081855b00020033000a03be000c00a000f5
:100ef0000402e900f6ff3b00850578000602430086
:100f000087824b0004003a006000b80009f0a70097
:100f100001f0a0000aff37000002520081825a004f
:100f20000704e000040033000603430087834b00fe
:100f30008b05e900faff3700090578000604be00ba
:100f40000203be006011b800c6fe0700e00f5200a9
:100f5000e08f5a000700350002003c000c08a30097
:100f6000040032000601be0003f0a0000cf0a70050
:100f700037fe07000a85680001f0a1000af0a7000b
:100f800001f0a000eefe37000800be00ecfe3700c6
:100f9000100220000cf0a60030698800ecfe37003b
:100fa0000c00fa00889fbe008a9fbe008c9fbe0086
:100fb0000004be000200200003702400ccfd0700e6
:100fc000c0b79f00d1b79f006011b8000800be00f5
:100fd000fbfd07000000e0003e0035004fb0970029
:100fe000dfb097007bfe0700f7fd07000006be009c
:100ff00052fd07000005be000200200003f02300a0
:10100000bbfd07000004be0072fe07000001be0029
:101010000800be000dfe07000001be000cfe070028
:10102000e9fd0700e0b79f00f1b79f000a01be008d
:101030004fb09700dfb0970004fe07000004be0029
:101040000200200003f02300ddfd07000000e000a7
:10105000110034000200200003f823000a00be0043
:10106000fbfd0700d8fd07000006be00f2ff2700c9
:10107000f0ff2700800f5600e08f5e00570034001d
:10108000020078004f06be004f05be004f04be00b0
:101090000080fa00000006000200200003f0230098
:1010a0000800be0053fe07000000e000efff3a001a
:1010b0006fb097000000e000e6ff3a00f2ff270063
:1010c000f0ff2700800f5600e08f5e00ecff3c0031
:1010d000420037004fb09700dfb0970047fe07008f
:1010e000b9fd07000006be0014fd07000005be00a4
:1010f0000001be004fb09700dfb0970047fe070029
:101100000000e000080032000200200003f8230085
:101110000a00be00cdfd0700abfd07000006be00c3
:1011200006fd07000005be000200200003f02300ba
:101130000a00be006efd07000004be0025fe070089
:101140000001be000800be00c0fd07000001be0097
:10115000bffd07009cfd070080bf9f0091bf9f005f
:101160000a01be004fb09700dfb09700b7fd07003f
:101170000004be000200200003f0230090fd0700e1
:101180000000e00009003c000200200003f0230002
:101190000800be0017fe07000000e00009003a004a
:1011a0000fb897000000e0000600320002002000a7
:1011b00003f823000a00be00a5fd070082fd07001a
:1011c0000006be000200280000002800f1ff2f00ea
:1011d000800f5600818f5e00a9ff35000c0078005b
:1011e0004f06be004f05be004f04be000080fa004f
:1011f00000000600a8ff3700f4874700889fbe0064
:101200008a9fbe008c9fbe008e1f7800d1b79f00c2
:1012100002047800110020008008dd002200200078
:10122000110009008200d8000005780000002000ad
:1012300001f823005aff0700dfb09700800878000c
:101240000000eb0090009800648740006150b900f6
:10125000bafc07000001be00b0fd2000910424008c
:10126000e1fc07000006be00d6fd0700e0b79f00c6
:10127000f1b79f000800e000410032000c00be0002
:10128000d2fd0700b0b79f00c1b79f0090b79f0085
:10129000a1b79f000a80e900320033006fb69700c3
:1012a000ffb697008000eb0081b79f000a05e900b8
:1012b0008abf9f000c00be0039ff0700000f7800b6
:1012c0001fb09700afb0970035ff070010079800d8
:1012d000640747006fb19700ffb197000c00be0094
:1012e00003fd07000004be001fb19700afb19700d7
:1012f0003fb09700cfb09700fdfc07000001be0093
:101300000800be0051fd07000005be000c01be0034
:101310003fb09700cfb09700f5fc07000004be0077
:101320006fb19700ffb197001fb09700afb0970063
:10133000effc07000001be000800be0044fd0700ee
:1013400090b79f00a1b79f000fb097000000e80082
:1013500080b79f000a06be008fb89700810f50002b
:10136000d4ff3a005fb097004f0778004f06be00e9
:101370004f05be004f04be004f01b1000000060043
:101380000c00be0091fd070001f0a200b0b79f0065
:10139000c1b79f0090b79f00a1b79f00bdff370066
:1013a000809fbe00831f7800841f780023002000e8
:1013b0000018dd000a0a0200000000004f01be0014
:1013c0004f00be00801f7800160a020000000000d7
:1013d000800078004f0078008e0a020000000000b4
:1013e00000000600809fbe00831f7800841f7800e5
:1013f000230020000018dd000a0a0200000000009f
:101400004f01be004f00be00c40a020000000000f1
:1014100000000600810178000000e900008009005a
:10142000b21878000300780000000600889fbe0014
:101430008a9fbe008c9fbe004400f800070f20006a
:10144000270288003400f80007f02f000338e1007d
:1014500004003200270280004700b3002702880002
:10146000a3018800811f780019002000804cdd0056
:101470001300200002047800800678008904d1005f
:10148000424edd00010578000302e90004800800f7
:10149000170000008a0546004218dd000902e90035
:1014a0000480080010000000000000004620c30077
:1014b0003b025200df35c100080440001381c20026
:1014c000ab825200264dc5003e85c400bb00cd0056
:1014d000bb80cd003a00ca002a80ca000700c900bc
:1014e0000580c900ba00cd00ba80cd000a054600cb
:1014f000020478008301d0008d06e900dfff3c0084
:101500004f0078003400f9004400f9004f06be0097
:101510004f05be004f04be00000006004600f80064
:101520005000f8000220200032028800020028004b
:10153000130020008019dd00028171008202880002
:1015400001007800010178002600200047002000fb
:101550008301e90003800800070000000110e1009a
:10156000040034001102be0092087800e2307b00d3
:101570000489be0087804000121978005000f900ed
:101580004600f90000000600811f7800801f7800e7
:10159000811f7800160a020000000000cf007800ca
:1015a0004f0078008e0a0200000000004f00780013
:1015b000000006000000fa00cda2a900cde2a900bb
:1015c000cdc2a900d1a2a800d1e2a800d1c2a80032
:1015d000d302a800d322a800e402a900e422a900b3
:1015e000e802a900e822a9000000eb00f0688800ea
:1015f0000000eb00006988000080fa00000006008f
:101600000200fa00d5c2bf00614060000004e000a3
:1016100009003a00f06880000000e800f0688800e7
:10162000f0688000ec0f500007003a001000200026
:10163000000f7800040037000000eb00f06888001d
:101640000000eb00000f78001e0078000080fa0018
:10165000000006000200fa00d5c2bf006240600030
:101660000004e00009003a00006980000000e80082
:101670000069880000698000ec0f500007003a0004
:1016800010002000000f7800040037000000eb007d
:10169000006988000000eb00000f78001e00780051
:1016a0000080fa00000006000400fa00000f780035
:1016b000110798001e007800106988001e0078004d
:1016c0009e009000010878001e0090000008b00005
:1016d000800078001e0078001100980081c3a900e6
:1016e00081a3a9008183a9008163a900013820009a
:1016f00091407800f0ccb30000c0600080e3b700f8
:101700000138200091407800c0cfb30000c06000d5
:101710000014a00080e3b70083e3a9002138200073
:101720009140780000c8b30000c06000d040b30012
:1017300082e3b7001e007800100078008000780077
:101740000000240000805000201c88001e0078004b
:1017500010009000800078000000240000805000fd
:10176000301c880000302000401c8800f00720005a
:10177000501c880040742000001988000000eb0015
:101780001019880000012000201988000000eb00db
:10179000401988002c03a9000000eb008019880084
:1017a0000000eb00500888007038210070088800a5
:1017b0000080fa00000006000200fa00000f780026
:1017c0009e0078000000eb00a00098009e007800ca
:1017d00010002000b00098008480a9009480a80028
:1017e00081e3a80021e3a80013e1a8000080fa002b
:1017f000000006000200fa00000f78009480a900a3
:1018000081e3a90021e3a90013e1a9000080fa0007
:10181000000006000c00fa0020079800310798002d
:10182000420798002e009000200090000000e00089
:10183000040032002e00900010007800500798003d
:10184000030037002e009000100090005007980011
:101850005e00900010079800ce0090000008200065
:10186000808f5000020034000008200040079800dc
:101870000000eb00000f78000d0037001e0078001c
:1018800000004000800078003e0090000081400091
:101890001e00780000004000800078001e009000cc
:1018a0000080400010007800000978001e0fe8005a
:1018b0004e0090009e0f1000f0ff35000400fc0069
:1018c000ae00900010002000b00098000000fc0066
:1018d0000080fa00000006000200fa00000f780005
:1018e0001e007800300090000080fa000000060022
:1018f000809fbe000000fa008480a900116980006a
:1019000010698000200090000000a200a000980054
:10191000116980000000eb00b00098000080fa0020
:101920004f00be00004006000400fa00000f7800df
:10193000110798001e007800206988001e007800ba
:101940009e009000010878001e0090000110200009
:10195000808040001e0078001100980010012200d5
:10196000601c880070002000701c88001e00780039
:1019700010007800800078000000240000805000f3
:10198000801c880000182000a01c88007000200027
:10199000b01c88000000eb00800888000000eb000d
:1019a000300888000000eb00600888000080fa0022
:1019b000000006000200fa00000f78009e00780088
:1019c0000000eb00a00098009e0078000000eb00f3
:1019d000e00098009e00780000082000c0009800f9
:1019e0009e00780000082000d00098009e0078003b
:1019f0000000eb00b000980085c0a90095c0a800c9
:101a00008de3a800002720006008880080132000d4
:101a1000000c880080132000100c8800600020005b
:101a2000200c880011e1a8000080fa0000000600e8
:101a30000200fa00000f780011e1a90095c0a9008a
:101a40008de3a9000080fa00000006001000fa00f3
:101a50004007980051079800620798004e009000d8
:101a6000200090000000e000040032004e009000d2
:101a70001000780070079800030037004e009000b7
:101a800010009000700798007e00900030079800ca
:101a9000ee00900000082000808f5000020034000b
:101aa00000082000600798000000eb002007980065
:101ab0002c0037002e0090000000400080007800cd
:101ac0005e00900000804000900078000000280038
:101ad00000804000100798001e0090006101b800cf
:101ae000002720000013b8006010b900070278003a
:101af00000024200002720000098b90000024200c6
:101b000084037800f2ff2f00030020000600be00cf
:101b10007bfa0700000f7800002720009e0f1000be
:101b200002003600f0262000000f78001e00e000c2
:101b300002003a0010002000000f78002e009000f4
:101b400000004000800078003e009000808040004f
:101b50001e007800800878002e0090000000e80049
:101b600020079800ae0090006e009000808f50001b
:101b7000d0ff35004e009000ee009000510098001c
:101b80000400fc00ce00900010002000b00098007f
:101b90000000fc000080fa00000006000200fa00cd
:101ba000000f78001e007800300090000080fa00de
:101bb00000000600809fbe000000fa0085c0a9005a
:101bc00021698000610090000000e800e0009800ba
:101bd00020698000e00090002069800040009000b3
:101be000808f500021003a00216980000000eb0046
:101bf000e0009800216980002069800020009000aa
:101c00000000a200a0009800216980000000eb0005
:101c1000b00098002069800020009000e10f500083
:101c200007003a00206980001000900080007800d2
:101c30000000240000805000801c8800060037004f
:101c400020698000100078008000780000002400e7
:101c500000805000801c880020698000216980007d
:101c6000d10090004100980003003700801c8000e4
:101c70000080e800801c88008de3a8000080fa0046
:101c80004f00be00004006000a00fa00889fbe0018
:101c90000000eb00300798000000eb0020079800e0
:101ca00040020700b0688000016024007efe07004b
:101cb000c0688000014024001bff0700b06880005e
:101cc000bdfe0700c06880003aff0700d5c2bf0014
:101cd000614060000004e00010003a002e00900017
:101ce000cf80de0015fa0700020020000328240040
:101cf0003dfa070002002000a35724007cfa0700e9
:101d0000008fbe0003c02000020820001e00be009d
:101d1000f0000700d1e2a9003c003700d5c2bf00a7
:101d2000614060000004e000110032000000eb00a0
:101d300040079800090037004e00900080004000e6
:101d400000c02000808040000000eb008008780088
:101d50004e0090000000e80040079800ce00900080
:101d6000f0072000808f5000f3ff34002700370079
:101d7000d5c2bf00624060000004e0000f003a00de
:101d80002e009000cf80de00ecf90700020020005a
:101d90000328240014fa070002002000a35f240097
:101da00053fa0700008fbe0003c020000208200085
:101db0001e00be00c700070014003700d5c2bf00d8
:101dc000624060000004e000100032000000eb0000
:101dd00040079800090037004e0090008000400046
:101de00000c02000808040000000eb0080087800e8
:101df0004e0090000000e80040079800ce009000e0
:101e0000f0072000808f5000f3ff3400b06880009e
:101e1000b1fe07000000e000fcff3a00b06880005f
:101e200002082000018020007afe070002802000c6
:101e30000100240000082000e8000700020820003c
:101e40000120240000002400fc0107000000eb003a
:101e5000400798001a0037004e009000012024002f
:101e60004200dd00010040001004be003e00900072
:101e7000cf80de00b1f907000001be000800be00ff
:101e80004ffa07000000e00001003c0009003700a5
:101e90004e009000012024004200dd0001004000bf
:101ea0001000be0048fa0700300798004e0090006e
:101eb000200798004e0090000000e80040079800be
:101ec000ce009000f0032000808f5000e2ff34002d
:101ed000be00900030062000808f500004003c00bf
:101ee000d1c2a800d1e2a800d1a2a8001d003700ed
:101ef0002e009000f40f500004003c00d1c2a90055
:101f0000d1e2a800d1a2a800160037002e00900050
:101f1000f50f500008003400ae0090009002200041
:101f2000808f500004003c00d1c2a800d1e2a8007c
:101f3000d1a2a9000b003700ae009000a002200043
:101f4000808f500004003400d1c2a800d1e2a90063
:101f5000d1a2a80003003700d1c2a800d1e2a80096
:101f6000d1a2a800c06880000cff07000000e000bc
:101f7000fcff3a00c06880000208200001c0200079
:101f8000b2fe070051ff37002200fa00881f7800d8
:101f9000500f9800610f9800720f98000317980077
:101fa00000002000a15f240020079800310798005e
:101fb000b0fd200091042400008fbe002e0190008f
:101fc000be0190000000200001f8230086f9070000
:101fd00040079800510798001e00be000001be0097
:101fe0001bfa07005e099000ee099000c0f9070097
:101ff000200f9800310f98000000eb00400f980070
:102000002d0037004e089000cf80de004bf907000e
:102010004e019000de019000b5f9070060079800be
:10202000710798006e019000fe0190002e0890004c
:10203000be089000aef9070062fa0700000f980092
:10204000110f98004e0890004200dd0080007800db
:102050000e109000008440000e0890009e08900032
:10206000cffb0700000c78006e019000fe0190008d
:102070002e089000be0890009df9070053fa070053
:10208000000f9800110f98004e0890004200dd00ec
:10209000800078000e109000008440000e08900030
:1020a0009e089000befb0700100498004e089000a8
:1020b0000000e800400f9800ce0890007e089000d5
:1020c000808f5000cfff35004f0478000080fa0069
:1020d000000006002200fa00881f7800500f9800c8
:1020e000610f9800720f98000317980000002000fd
:1020f000a15f24004007980051079800b0fd200020
:1021000091042400008fbe004e019000de0190007b
:102110000000200001f8230033f907006007980051
:10212000710798001e00be000001be00c8f907003c
:102130005e099000ee0990006df90700200f9800ed
:10214000310f98000000eb00400f98001c00370092
:102150004e089000cf80de00f8f807006e01900076
:10216000fe01900062f90700000f9800110f98001f
:102170000e0990009e0990002e089000be08900065
:102180005bf9070011fa0700200798003107980053
:102190004e08900000004000800078000e10900073
:1021a000008440002e009000be0090007cfb0700e1
:1021b000000c78004e0890000000e800400f9800e6
:1021c000ce0890007e089000808f5000e0ff350020
:1021d0004f0478000080fa00000006000800fa00b2
:1021e0001007980021079800320798000000eb00c4
:1021f000000f7800130037009e0178001e00780061
:1022000000004000800078003e0090000080400008
:102210001001780001c023004218dd0001004000d9
:10222000020878001e00780001c023004200dd0093
:10223000010040008080e8000000eb00800878008a
:102240001e0fe8001e0090009e0f1000eaff3500f0
:102250000001eb0001a0200070002000e6fb070059
:1022600004f02f0003a0200002c02300ae00900065
:10227000700020004afc07000080fa000000060001
:102280000800fa001007980021079800320798000c
:102290001200200001a0200070002000d6fb0700e3
:1022a00004f02f0003a020003e01900001c0230095
:1022b000700020004bfc07000000eb00000f7800ce
:1022c0000b0037001e0078000000400080007800fe
:1022d0002e009000008140001e00780001c0230005
:1022e0004200dd0060807800000978001e0fe800e1
:1022f0001e0090009e0f1000f2ff35000080fa00d3
:10230000000006000a00fa00200798003107980034
:10231000420798002e0090002200200011000900c2
:102320000200d800000f78000000eb0010079800b2
:102330001b0037001e0090004200dd008000780086
:102340003e009000008140001e0090004200dd0031
:10235000800078004e00900000804000100078005f
:10236000000978001e0090004200dd008000780027
:102370003e009000008140001e0090004200dd0001
:10238000800078004e009000008040001000900017
:10239000100198001e0090000000e800100798004f
:1023a0001e0090009e0f5000e2ff35001e007800d6
:1023b00010079800110037001e0090004200dd0059
:1023c000800078003e009000808040000000eb001c
:1023d000800878001e0090004200dd008000780038
:1023e0003e009000808040000000eb0090009800cc
:1023f0001e0090000000e800100798009e0090006a
:102400002e009000808f5000ebff35000080fa0016
:10241000000006000c00fa00200798003107980021
:1024200042079800530798002e00900022002000d9
:10243000110009000200d800000f78000000eb0036
:1024400010079800110037001e0090004200dd00c8
:10245000800078004e009000808040000000eb007b
:10246000800878001e0090004200dd0080007800a7
:102470004e009000808040000000eb00900098002b
:102480001e0090000000e800100798009e009000d9
:102490003e009000808f5000ebff35000000eb0005
:1024a000100798001f0037009e0090003e0090002b
:1024b000008040004200dd00800078004e00900067
:1024c000008140001e0090004200dd008000780086
:1024d0005e00900000804000100078000009780045
:1024e0009e0090003e009000008040004200dd0011
:1024f000800078004e009000008140001e00900097
:102500004200dd00800078005e0090000080400006
:1025100010009000100198001e0090000000e800dc
:1025200010079800ae0090003e00900080805000a0
:102530001e009000808f5000dbff3c001e007800e2
:1025400010079800110037001e0090004200dd00c7
:10255000800078004e009000808040000000eb007a
:10256000800878001e0090004200dd0080007800a6
:102570004e009000808040000000eb00900098002a
:102580001e0090000000e800100798009e009000d8
:102590002e009000808f5000ebff35000080fa0085
:1025a000000006000000fa0090022000303a880087
:1025b00044c7bf00f043b20044e7b70041742000b5
:1025c0009140780000ceb30000c0600044e7b7003f
:1025d0000000eb00403a8800120020008107200034
:1025e000a0092000337420008149780080497800d8
:1025f000824978001200200061042000700520004c
:10260000237420008149780080497800824978004d
:1026100043c7bf000047b200f04f5000fcff3a0034
:1026200042c7bf000042b2000004e000fcff3200dd
:10263000e0fb07000080fa00000006000800fa0036
:10264000889fbe008a1f7800100798002107980015
:102650003207980010002000000f78001f0037009c
:102660001e0078004200dd00800078002e009000ff
:10267000008540001e0078004200dd0080007800e8
:102680001e0090000080400010007800cf80de0027
:10269000aaf707000001be0015f807000004be00fd
:1026a0001e0078004200dd00800078001e009000cf
:1026b0000080400010009000cf80de009ff70700f0
:1026c0000001be000af807000001be000800be00bd
:1026d0005ff80700008dbe001e0fe8003e0090006e
:1026e00022002000110009000200d8009e0f5000b7
:1026f000dbff3c004f0578004f04be000080fa006d
:10270000000006000800fa00000f78001207980089
:1027100023079800310798001e0078000208200067
:10272000110009000200d8008000780000f42100a8
:102730000088b900cf80de0080f7070010079800fe
:10274000210798000080fa00000006000a00fa0045
:10275000889fbe0020079800310798004207980024
:102760000000eb00000f78000000eb00100798005d
:102770001c0037001e0090004200dd008000780041
:102780002e009000008040001004be001e00780063
:10279000cf80de0069f707000001be000800be0020
:1027a00007f807000000e00001003c000a003700c5
:1027b0001e0090004200dd00800078002e00900096
:1027c000008040001000be00fff70700000f7800f7
:1027d0001e009000300798001e0090000000e800e6
:1027e000100798004e009000220020001100090000
:1027f0000200d800800078001e009000808f5000fa
:10280000dcff3c004f04be000080fa000000060020
:020000040000fa
:0200000401f009
:04000800ffff0000f6
:020000040000fa
:0200000401f009
:04000c00f8ff0000f9
:020000040000fa
:0200000401f009
:040010007bff000072
:020000040000fa
:0200000401f009
:040014007fff00006a
:020000040000fa
:100008005814000058140000581400005814000038
:100018005814000058140000581400005814000028
:100028005814000058140000581400005814000018
:10003800780c0000581400005814000058140000f0
:1000480058140000581400005814000058140000f8
:100058005814000058140000da0d0000581400006d
:1000680058140000581400005814000058140000d8
:1000780058140000581400005814000058140000c8
:1000880058140000581400005814000058140000b8
:1000980058140000581400005814000058140000a8
:1000a8005814000058140000581400005814000098
:1000b8005814000058140000581400005814000088
:1000c8005814000058140000581400005814000078
:1000d8005814000058140000581400005814000068
:1000e8005814000058140000581400005814000058
:1000f8005814000058140000581400005814000048
:100108005814000058140000581400005814000037
:100118005814000058140000581400005814000027
:100128005814000058140000581400005814000017
:100138005814000058140000581400005814000007
:1001480058140000581400005814000058140000f7
:1001580058140000581400005814000058140000e7
:1001680058140000581400005814000058140000d7
:1001780058140000581400005814000058140000c7
:1001880058140000581400005814000058140000b7
:1001980058140000581400005814000058140000a7
:1001a8005814000058140000581400005814000097
:1001b8005814000058140000581400005814000087
:1001c8005814000058140000581400005814000077
:1001d8005814000058140000581400005814000067
:1001e8005814000058140000581400005814000057
:0801f800581400005814000027
:020000040000fa
:100208005814000058140000581400005814000036
:100218005814000058140000581400005814000026
:100228005814000058140000581400005814000016
:10023800780c0000581400005814000058140000ee
:1002480058140000581400005814000058140000f6
:100258005814000058140000da0d0000581400006b
:1002680058140000581400005814000058140000d6
:1002780058140000581400005814000058140000c6
:1002880058140000581400005814000058140000b6
:1002980058140000581400005814000058140000a6
:1002a8005814000058140000581400005814000096
:1002b8005814000058140000581400005814000086
:1002c8005814000058140000581400005814000076
:1002d8005814000058140000581400005814000066
:1002e8005814000058140000581400005814000056
:1002f8005814000058140000581400005814000046
:100308005814000058140000581400005814000035
:100318005814000058140000581400005814000025
:100328005814000058140000581400005814000015
:100338005814000058140000581400005814000005
:1003480058140000581400005814000058140000f5
:1003580058140000581400005814000058140000e5
:1003680058140000581400005814000058140000d5
:1003780058140000581400005814000058140000c5
:1003880058140000581400005814000058140000b5
:1003980058140000581400005814000058140000a5
:1003a8005814000058140000581400005814000095
:1003b8005814000058140000581400005814000085
:1003c8005814000058140000581400005814000075
:1003d8005814000058140000581400005814000065
:1003e8005814000058140000581400005814000055
:0803f800581400005814000025
:020000040000fa
:102810001e0d00000400000000000000220d00005a
:102820000200000000000000240d00000200000073
:1028300000000000160d000008000000020000006b
:10284000000d08000d000000000000000046000020
:102850000002000000000000004400000002000030
:1028600000000000003e0000000600000000000024
:10287000000c00001601000000000000000800002d
:102880000002000000000000000a0000000200003a
:1028900000000000003c00000002000000000000fa
:1028a000260d0000020000000000000000000000f3
:020000040000fa
:0428b0000000fe0026
:00000001FF
